{
  "transactions": [
    {
      "hash": "0xb76c877b5c919ffffc2b2bb5dcadce4f1c4bfc7b8ab6ba840b348ffca8e5d0d5",
      "transactionType": "CALL",
      "contractName": "TokenAdminRegistry",
      "contractAddress": "0x736d0bbb318c1b27ff686cd19804094e66250e17",
      "function": "setPool(address,address)",
      "arguments": [
        "0x2be47261554ce80f6f2cC7490B072506eE20ca46",
        "0xf499E1Fc5978fa1BC848c49c158eF2dB4B941FBA"
      ],
      "transaction": {
        "from": "0xbf2a4454226e8296825d3ec06d08d6c0b41dcebd",
        "to": "0x736d0bbb318c1b27ff686cd19804094e66250e17",
        "gas": "0x11882",
        "value": "0x0",
        "input": "0x4e847fc70000000000000000000000002be47261554ce80f6f2cc7490b072506ee20ca46000000000000000000000000f499e1fc5978fa1bc848c49c158ef2db4b941fba",
        "nonce": "0x7",
        "chainId": "0x14a34"
      },
      "additionalContracts": [],
      "isFixedGasLimit": false
    }
  ],
  "receipts": [
    {
      "status": "0x1",
      "cumulativeGasUsed": "0x11799da",
      "logs": [
        {
          "address": "0x736d0bbb318c1b27ff686cd19804094e66250e17",
          "topics": [
            "0x754449ec3aff3bd528bfce43ae9319c4a381b67fcd1d20097b3b24dacaecc35d",
            "0x0000000000000000000000002be47261554ce80f6f2cc7490b072506ee20ca46",
            "0x0000000000000000000000000000000000000000000000000000000000000000",
            "0x000000000000000000000000f499e1fc5978fa1bc848c49c158ef2db4b941fba"
          ],
          "data": "0x",
          "blockHash": "0x627f38fd6605aa640cf67b1cdbaa410eacfdfb0d58d99466ed553bf0ad21da82",
          "blockNumber": "0x22f3f20",
          "blockTimestamp": "0x6971dd20",
          "transactionHash": "0xb76c877b5c919ffffc2b2bb5dcadce4f1c4bfc7b8ab6ba840b348ffca8e5d0d5",
          "transactionIndex": "0x12",
          "logIndex": "0x27a",
          "removed": false
        }
      ],
      "logsBloom": "0x00000000000400000000000020000000000000000000000000000000000000000000000000000000000000000000000000000000000000000000000000000000000000000000000000010000000001000000000001000000000200000000000000000000020000000000000400000800000000000000000004000000000000000000000000000000000000000000000000000000000000000000000000000000000000000000000000000000000000000000020000000000000000000000000001000000000000000000000000000000000000000000020000000000000020000000000000000000000000000000000000000000000000000000000001000000",
      "type": "0x2",
      "transactionHash": "0xb76c877b5c919ffffc2b2bb5dcadce4f1c4bfc7b8ab6ba840b348ffca8e5d0d5",
      "transactionIndex": "0x12",
      "blockHash": "0x627f38fd6605aa640cf67b1cdbaa410eacfdfb0d58d99466ed553bf0ad21da82",
      "blockNumber": "0x22f3f20",
      "gasUsed": "0xcb16",
      "effectiveGasPrice": "0x124f80",
      "blobGasUsed": "0x79e0",
      "from": "0xbf2a4454226e8296825d3ec06d08d6c0b41dcebd",
      "to": "0x736d0bbb318c1b27ff686cd19804094e66250e17",
      "contractAddress": null,
      "daFootprintGasScalar": "0x138",
      "l1BaseFeeScalar": "0x44d",
      "l1BlobBaseFee": "0x51d8374",
      "l1BlobBaseFeeScalar": "0xa118b",
      "l1Fee": "0x1c1af6ac1",
      "l1GasPrice": "0x3faa4601",
      "l1GasUsed": "0x640"
    }
  ],
  "libraries": [],
  "pending": [],
  "returns": {},
  "timestamp": 1769069857631,
  "chain": 84532,
  "commit": "1262e70"
}