{
  "transactions": [
    {
      "hash": "0x134ce4c811c60e2d2f0fc81b4db026551fc844cc2104f54441051bb5cba072c4",
      "transactionType": "CALL",
      "contractName": null,
      "contractAddress": "0xaf8e5d63c45925a201bdd824c3452cf77d92bff8",
      "function": "mint(address,uint256)",
      "arguments": [
        "0xBF2A4454226E8296825d3eC06d08D6c0b41dcebd",
        "1000000000000000000000"
      ],
      "transaction": {
        "from": "0xbf2a4454226e8296825d3ec06d08d6c0b41dcebd",
        "to": "0xaf8e5d63c45925a201bdd824c3452cf77d92bff8",
        "gas": "0x17de6",
        "value": "0x0",
        "input": "0x40c10f19000000000000000000000000bf2a4454226e8296825d3ec06d08d6c0b41dcebd00000000000000000000000000000000000000000000003635c9adc5dea00000",
        "nonce": "0xc8",
        "chainId": "0xaa36a7"
      },
      "additionalContracts": [],
      "isFixedGasLimit": false
    }
  ],
  "receipts": [
    {
      "status": "0x1",
      "cumulativeGasUsed": "0xa16c6f",
      "logs": [
        {
          "address": "0xaf8e5d63c45925a201bdd824c3452cf77d92bff8",
          "topics": [
            "0xddf252ad1be2c89b69c2b068fc378daa952ba7f163c4a11628f55a4df523b3ef",
            "0x0000000000000000000000000000000000000000000000000000000000000000",
            "0x000000000000000000000000bf2a4454226e8296825d3ec06d08d6c0b41dcebd"
          ],
          "data": "0x00000000000000000000000000000000000000000000003635c9adc5dea00000",
          "blockHash": "0xa2d557a1ba92bdc1e99cb6b953fc0f4ab16ba835df269e82c089d0b6f4fd8658",
          "blockNumber": "0x9a137a",
          "blockTimestamp": "0x6971ddf8",
          "transactionHash": "0x134ce4c811c60e2d2f0fc81b4db026551fc844cc2104f54441051bb5cba072c4",
          "transactionIndex": "0x35",
          "logIndex": "0x5d",
          "removed": false
        }
      ],
      "logsBloom": "0x00000000000000000000000000000000000000000000000000000000000000000000000000000000000000000000000000000000000000000000000000000000000000000000000000000008000000000000000000000000000000200000000000000000020000000000000000000800000000000000000000000010000000000000000000000000000000000000000000000000000000000000000001000000000000000000000000000000000002000000000000000000000000000000000000000002000000000000000040000000000000010000000000000000000020000000001000000000000000000000000000000000000000000000000000000000",
      "type": "0x2",
      "transactionHash": "0x134ce4c811c60e2d2f0fc81b4db026551fc844cc2104f54441051bb5cba072c4",
      "transactionIndex": "0x35",
      "blockHash": "0xa2d557a1ba92bdc1e99cb6b953fc0f4ab16ba835df269e82c089d0b6f4fd8658",
      "blockNumber": "0x9a137a",
      "gasUsed": "0x1147e",
      "effectiveGasPrice": "0x3c64c624",
      "from": "0xbf2a4454226e8296825d3ec06d08d6c0b41dcebd",
      "to": "0xaf8e5d63c45925a201bdd824c3452cf77d92bff8",
      "contractAddress": null
    }
  ],
  "libraries": [],
  "pending": [],
  "returns": {},
  "timestamp": 1769070074237,
  "chain": 11155111,
  "commit": "1262e70"
}