{
  "transactions": [
    {
      "hash": "0xce6eedf6b392884f71ae260c228ef9440c8e455892b4dfa13d834abf54f2aa57",
      "transactionType": "CALL",
      "contractName": null,
      "contractAddress": "0xaf8e5d63c45925a201bdd824c3452cf77d92bff8",
      "function": "approve(address,uint256)",
      "arguments": [
        "0x0BF3dE8c5D3e8A2B34D2BEeB17ABfCeBaf363A59",
        "100000000000000000"
      ],
      "transaction": {
        "from": "0xbf2a4454226e8296825d3ec06d08d6c0b41dcebd",
        "to": "0xaf8e5d63c45925a201bdd824c3452cf77d92bff8",
        "gas": "0xfa49",
        "value": "0x0",
        "input": "0x095ea7b30000000000000000000000000bf3de8c5d3e8a2b34d2beeb17abfcebaf363a59000000000000000000000000000000000000000000000000016345785d8a0000",
        "nonce": "0xc9",
        "chainId": "0xaa36a7"
      },
      "additionalContracts": [],
      "isFixedGasLimit": false
    },
    {
      "hash": "0x629dfe614302969ad3c44a6292eb5b25cec3e30cf605342064377eaf02163d5e",
      "transactionType": "CALL",
      "contractName": null,
      "contractAddress": "0x0bf3de8c5d3e8a2b34d2beeb17abfcebaf363a59",
      "function": "ccipSend(uint64,(bytes,bytes,(address,uint256)[],address,bytes))",
      "arguments": [
        "10344971235874465080",
        "(0x000000000000000000000000bf2a4454226e8296825d3ec06d08d6c0b41dcebd, 0x, [(0xAF8E5D63c45925a201bDd824c3452CF77D92bFF8, 100000000000000000)], 0x0000000000000000000000000000000000000000, 0x97a657c90000000000000000000000000000000000000000000000000000000000000000)"
      ],
      "transaction": {
        "from": "0xbf2a4454226e8296825d3ec06d08d6c0b41dcebd",
        "to": "0x0bf3de8c5d3e8a2b34d2beeb17abfcebaf363a59",
        "gas": "0x4efb4",
        "value": "0x44ba37bd5331",
        "input": "0x96f4e9f90000000000000000000000000000000000000000000000008f90b8876dee6538000000000000000000000000000000000000000000000000000000000000004000000000000000000000000000000000000000000000000000000000000000a000000000000000000000000000000000000000000000000000000000000000e00000000000000000000000000000000000000000000000000000000000000100000000000000000000000000000000000000000000000000000000000000000000000000000000000000000000000000000000000000000000000000000001600000000000000000000000000000000000000000000000000000000000000020000000000000000000000000bf2a4454226e8296825d3ec06d08d6c0b41dcebd00000000000000000000000000000000000000000000000000000000000000000000000000000000000000000000000000000000000000000000000000000001000000000000000000000000af8e5d63c45925a201bdd824c3452cf77d92bff8000000000000000000000000000000000000000000000000016345785d8a0000000000000000000000000000000000000000000000000000000000000000002497a657c9000000000000000000000000000000000000000000000000000000000000000000000000000000000000000000000000000000000000000000000000",
        "nonce": "0xca",
        "chainId": "0xaa36a7"
      },
      "additionalContracts": [],
      "isFixedGasLimit": false
    }
  ],
  "receipts": [
    {
      "status": "0x1",
      "cumulativeGasUsed": "0x82c4b5",
      "logs": [
        {
          "address": "0xaf8e5d63c45925a201bdd824c3452cf77d92bff8",
          "topics": [
            "0x8c5be1e5ebec7d5bd14f71427d1e84f3dd0314c0f7b2291e5b200ac8c7c3b925",
            "0x000000000000000000000000bf2a4454226e8296825d3ec06d08d6c0b41dcebd",
            "0x0000000000000000000000000bf3de8c5d3e8a2b34d2beeb17abfcebaf363a59"
          ],
          "data": "0x000000000000000000000000000000000000000000000000016345785d8a0000",
          "blockHash": "0x428041df3f03bc8d0c791825b2295fdd19063c42e4d138ee78893538ba4ad9db",
          "blockNumber": "0x9a137f",
          "blockTimestamp": "0x6971de34",
          "transactionHash": "0xce6eedf6b392884f71ae260c228ef9440c8e455892b4dfa13d834abf54f2aa57",
          "transactionIndex": "0x3d",
          "logIndex": "0x58",
          "removed": false
        }
      ],
      "logsBloom": "0x00000000000040000000000000000000000000000000000000000000000000000000000000000000000000000000000000000000000000000000000000200000000000000000000000000000000000000000000000000000000000200000000000000000000100000000000000000000000000000000000000000000000000000000000000000000000000000000000000000000000000000000000001000000020000000000080000000000000002000000000000000000000000000000000000000000000000000000000040000000000000010000000000000000000000000010001000000000000000000000000000000000000000000000000000000000",
      "type": "0x2",
      "transactionHash": "0xce6eedf6b392884f71ae260c228ef9440c8e455892b4dfa13d834abf54f2aa57",
      "transactionIndex": "0x3d",
      "blockHash": "0x428041df3f03bc8d0c791825b2295fdd19063c42e4d138ee78893538ba4ad9db",
      "blockNumber": "0x9a137f",
      "gasUsed": "0xb534",
      "effectiveGasPrice": "0x4358c3b6",
      "from": "0xbf2a4454226e8296825d3ec06d08d6c0b41dcebd",
      "to": "0xaf8e5d63c45925a201bdd824c3452cf77d92bff8",
      "contractAddress": null
    },
    {
      "status": "0x1",
      "cumulativeGasUsed": "0x62a4e0",
      "logs": [
        {
          "address": "0x097d90c9d3e0b50ca60e1ae45f6a81010f9fb534",
          "topics": [
            "0xe1fffcc4923d04b559f4d29a8bfc6cda04eb5b0d3c460751c2402c5c5cc9109c",
            "0x0000000000000000000000000bf3de8c5d3e8a2b34d2beeb17abfcebaf363a59"
          ],
          "data": "0x000000000000000000000000000000000000000000000000000044ba37bd5331",
          "blockHash": "0x4b343bb9d8d303be599d24db6054146649a3365d27dc4694bfd1accc2e0e5408",
          "blockNumber": "0x9a1380",
          "blockTimestamp": "0x6971de40",
          "transactionHash": "0x629dfe614302969ad3c44a6292eb5b25cec3e30cf605342064377eaf02163d5e",
          "transactionIndex": "0x2f",
          "logIndex": "0x4e",
          "removed": false
        },
        {
          "address": "0x097d90c9d3e0b50ca60e1ae45f6a81010f9fb534",
          "topics": [
            "0xddf252ad1be2c89b69c2b068fc378daa952ba7f163c4a11628f55a4df523b3ef",
            "0x0000000000000000000000000bf3de8c5d3e8a2b34d2beeb17abfcebaf363a59",
            "0x0000000000000000000000008f35b097022135e0f46831f798a240cc8c4b0b01"
          ],
          "data": "0x000000000000000000000000000000000000000000000000000044ba37bd5331",
          "blockHash": "0x4b343bb9d8d303be599d24db6054146649a3365d27dc4694bfd1accc2e0e5408",
          "blockNumber": "0x9a1380",
          "blockTimestamp": "0x6971de40",
          "transactionHash": "0x629dfe614302969ad3c44a6292eb5b25cec3e30cf605342064377eaf02163d5e",
          "transactionIndex": "0x2f",
          "logIndex": "0x4f",
          "removed": false
        },
        {
          "address": "0xaf8e5d63c45925a201bdd824c3452cf77d92bff8",
          "topics": [
            "0x8c5be1e5ebec7d5bd14f71427d1e84f3dd0314c0f7b2291e5b200ac8c7c3b925",
            "0x000000000000000000000000bf2a4454226e8296825d3ec06d08d6c0b41dcebd",
            "0x0000000000000000000000000bf3de8c5d3e8a2b34d2beeb17abfcebaf363a59"
          ],
          "data": "0x0000000000000000000000000000000000000000000000000000000000000000",
          "blockHash": "0x4b343bb9d8d303be599d24db6054146649a3365d27dc4694bfd1accc2e0e5408",
          "blockNumber": "0x9a1380",
          "blockTimestamp": "0x6971de40",
          "transactionHash": "0x629dfe614302969ad3c44a6292eb5b25cec3e30cf605342064377eaf02163d5e",
          "transactionIndex": "0x2f",
          "logIndex": "0x50",
          "removed": false
        },
        {
          "address": "0xaf8e5d63c45925a201bdd824c3452cf77d92bff8",
          "topics": [
            "0xddf252ad1be2c89b69c2b068fc378daa952ba7f163c4a11628f55a4df523b3ef",
            "0x000000000000000000000000bf2a4454226e8296825d3ec06d08d6c0b41dcebd",
            "0x000000000000000000000000c33f9b759f4f3b410dc4f1d4d6493619c1d1f1bf"
          ],
          "data": "0x000000000000000000000000000000000000000000000000016345785d8a0000",
          "blockHash": "0x4b343bb9d8d303be599d24db6054146649a3365d27dc4694bfd1accc2e0e5408",
          "blockNumber": "0x9a1380",
          "blockTimestamp": "0x6971de40",
          "transactionHash": "0x629dfe614302969ad3c44a6292eb5b25cec3e30cf605342064377eaf02163d5e",
          "transactionIndex": "0x2f",
          "logIndex": "0x51",
          "removed": false
        },
        {
          "address": "0xaf8e5d63c45925a201bdd824c3452cf77d92bff8",
          "topics": [
            "0xddf252ad1be2c89b69c2b068fc378daa952ba7f163c4a11628f55a4df523b3ef",
            "0x000000000000000000000000c33f9b759f4f3b410dc4f1d4d6493619c1d1f1bf",
            "0x0000000000000000000000000000000000000000000000000000000000000000"
          ],
          "data": "0x000000000000000000000000000000000000000000000000016345785d8a0000",
          "blockHash": "0x4b343bb9d8d303be599d24db6054146649a3365d27dc4694bfd1accc2e0e5408",
          "blockNumber": "0x9a1380",
          "blockTimestamp": "0x6971de40",
          "transactionHash": "0x629dfe614302969ad3c44a6292eb5b25cec3e30cf605342064377eaf02163d5e",
          "transactionIndex": "0x2f",
          "logIndex": "0x52",
          "removed": false
        },
        {
          "address": "0xc33f9b759f4f3b410dc4f1d4d6493619c1d1f1bf",
          "topics": [
            "0x696de425f79f4a40bc6d2122ca50507f0efbeabbff86a84871b7196ab8ea8df7",
            "0x0000000000000000000000008f35b097022135e0f46831f798a240cc8c4b0b01"
          ],
          "data": "0x000000000000000000000000000000000000000000000000016345785d8a0000",
          "blockHash": "0x4b343bb9d8d303be599d24db6054146649a3365d27dc4694bfd1accc2e0e5408",
          "blockNumber": "0x9a1380",
          "blockTimestamp": "0x6971de40",
          "transactionHash": "0x629dfe614302969ad3c44a6292eb5b25cec3e30cf605342064377eaf02163d5e",
          "transactionIndex": "0x2f",
          "logIndex": "0x53",
          "removed": false
        },
        {
          "address": "0x8f35b097022135e0f46831f798a240cc8c4b0b01",
          "topics": [
            "0xd0c3c799bf9e2639de44391e7f524d229b2b55f5b1ea94b2bf7da42f7243dddd"
          ],
          "data": "0x0000000000000000000000000000000000000000000000000000000000000020000000000000000000000000000000000000000000000000de41ba4fc9d91ad9000000000000000000000000bf2a4454226e8296825d3ec06d08d6c0b41dcebd000000000000000000000000bf2a4454226e8296825d3ec06d08d6c0b41dcebd0000000000000000000000000000000000000000000000000000000000006144000000000000000000000000000000000000000000000000000000000000000000000000000000000000000000000000000000000000000000000000000000000000000000000000000000000000000000000000000000000000000000000001000000000000000000000000097d90c9d3e0b50ca60e1ae45f6a81010f9fb534000000000000000000000000000000000000000000000000000044ba37bd533100000000000000000000000000000000000000000000000000000000000001a000000000000000000000000000000000000000000000000000000000000001c000000000000000000000000000000000000000000000000000000000000002202c1bdc69b65d9c71e3e520340413041b327ee35f8f513dc32fd4770e15c4c44200000000000000000000000000000000000000000000000000000000000000000000000000000000000000000000000000000000000000000000000000000001000000000000000000000000af8e5d63c45925a201bdd824c3452cf77d92bff8000000000000000000000000000000000000000000000000016345785d8a00000000000000000000000000000000000000000000000000000000000000000001000000000000000000000000000000000000000000000000000000000000002000000000000000000000000000000000000000000000000000000000000001600000000000000000000000000000000000000000000000000000000000000020000000000000000000000000000000000000000000000000000000000000008000000000000000000000000000000000000000000000000000000000000000c000000000000000000000000000000000000000000000000000000000000001000000000000000000000000000000000000000000000000000000000000015f900000000000000000000000000000000000000000000000000000000000000020000000000000000000000000c33f9b759f4f3b410dc4f1d4d6493619c1d1f1bf00000000000000000000000000000000000000000000000000000000000000200000000000000000000000002be47261554ce80f6f2cc7490b072506ee20ca4600000000000000000000000000000000000000000000000000000000000000200000000000000000000000000000000000000000000000000000000000000012",
          "blockHash": "0x4b343bb9d8d303be599d24db6054146649a3365d27dc4694bfd1accc2e0e5408",
          "blockNumber": "0x9a1380",
          "blockTimestamp": "0x6971de40",
          "transactionHash": "0x629dfe614302969ad3c44a6292eb5b25cec3e30cf605342064377eaf02163d5e",
          "transactionIndex": "0x2f",
          "logIndex": "0x54",
          "removed": false
        }
      ],
      "logsBloom": "0x00000080000040000000000000000000000000000000000000000000008000000000000000000000002000000000000000000000000040000000000000200000000000000000000000000008000000000000000000000000000000208000000000000000060100000000000010000802000000000800000000000010000000000100000000000000000000000000000000000001000000000000800001000000020000000000080401000000000002000000000000000000000100001000000000000002000000100000000040080000000000010000000000000000000020000010401040000000000000000000000004000008000000400000000000001000",
      "type": "0x2",
      "transactionHash": "0x629dfe614302969ad3c44a6292eb5b25cec3e30cf605342064377eaf02163d5e",
      "transactionIndex": "0x2f",
      "blockHash": "0x4b343bb9d8d303be599d24db6054146649a3365d27dc4694bfd1accc2e0e5408",
      "blockNumber": "0x9a1380",
      "gasUsed": "0x36013",
      "effectiveGasPrice": "0x3e0e8a11",
      "from": "0xbf2a4454226e8296825d3ec06d08d6c0b41dcebd",
      "to": "0x0bf3de8c5d3e8a2b34d2beeb17abfcebaf363a59",
      "contractAddress": null
    }
  ],
  "libraries": [],
  "pending": [],
  "returns": {},
  "timestamp": 1769070146507,
  "chain": 11155111,
  "commit": "1262e70"
}