{
  "transactions": [
    {
      "hash": "0x739bdccda7228b2cc83a8f1731350a68ed19745b8aca99d6a44d2e22992ef2cb",
      "transactionType": "CALL",
      "contractName": "TokenAdminRegistry",
      "contractAddress": "0x736d0bbb318c1b27ff686cd19804094e66250e17",
      "function": "acceptAdminRole(address)",
      "arguments": [
        "0x2be47261554ce80f6f2cC7490B072506eE20ca46"
      ],
      "transaction": {
        "from": "0xbf2a4454226e8296825d3ec06d08d6c0b41dcebd",
        "to": "0x736d0bbb318c1b27ff686cd19804094e66250e17",
        "gas": "0x10611",
        "value": "0x0",
        "input": "0x156194da0000000000000000000000002be47261554ce80f6f2cc7490b072506ee20ca46",
        "nonce": "0x6",
        "chainId": "0x14a34"
      },
      "additionalContracts": [],
      "isFixedGasLimit": false
    }
  ],
  "receipts": [
    {
      "status": "0x1",
      "cumulativeGasUsed": "0x445bc7",
      "logs": [
        {
          "address": "0x736d0bbb318c1b27ff686cd19804094e66250e17",
          "topics": [
            "0x399b55200f7f639a63d76efe3dcfa9156ce367058d6b673041b84a628885f5a7",
            "0x0000000000000000000000002be47261554ce80f6f2cc7490b072506ee20ca46",
            "0x000000000000000000000000bf2a4454226e8296825d3ec06d08d6c0b41dcebd"
          ],
          "data": "0x",
          "blockHash": "0xb872880ef3f97b06d184dc6b067faf7d850bca3cf474e2ffeffa26f13e3cf45b",
          "blockNumber": "0x22f3ef1",
          "blockTimestamp": "0x6971dcc2",
          "transactionHash": "0x739bdccda7228b2cc83a8f1731350a68ed19745b8aca99d6a44d2e22992ef2cb",
          "transactionIndex": "0x8",
          "logIndex": "0x62",
          "removed": false
        }
      ],
      "logsBloom": "0x00000000000000000000000020000000000000000000001000000000000000000000000000000000000000000000000000000000000000000000000000000000000000000000000000000000000001000000000000000000000000000000000000000000000000000000000000000000000000000000000004000000000000000000000000000000000000000000000000000000000000000000000001000000000000000000000000000000000002000000020000000000000000000000000001000000000004000000000000000000000000000000020000000000000000000000001000000000000000000000000000000000000400000000000000000000",
      "type": "0x2",
      "transactionHash": "0x739bdccda7228b2cc83a8f1731350a68ed19745b8aca99d6a44d2e22992ef2cb",
      "transactionIndex": "0x8",
      "blockHash": "0xb872880ef3f97b06d184dc6b067faf7d850bca3cf474e2ffeffa26f13e3cf45b",
      "blockNumber": "0x22f3ef1",
      "gasUsed": "0xb331",
      "effectiveGasPrice": "0x124f80",
      "blobGasUsed": "0x79e0",
      "from": "0xbf2a4454226e8296825d3ec06d08d6c0b41dcebd",
      "to": "0x736d0bbb318c1b27ff686cd19804094e66250e17",
      "contractAddress": null,
      "daFootprintGasScalar": "0x138",
      "l1BaseFeeScalar": "0x44d",
      "l1BlobBaseFee": "0x3ff22c1",
      "l1BlobBaseFeeScalar": "0xa118b",
      "l1Fee": "0x179a31aa9",
      "l1GasPrice": "0x40ab0ea9",
      "l1GasUsed": "0x640"
    }
  ],
  "libraries": [],
  "pending": [],
  "returns": {},
  "timestamp": 1769069762776,
  "chain": 84532,
  "commit": "1262e70"
}