{
  "transactions": [
    {
      "hash": "0x99b24964743067c6f0e9ecb0b38cdb5405870b952fd37b90b031a3c3d8def167",
      "transactionType": "CALL",
      "contractName": "RegistryModuleOwnerCustom",
      "contractAddress": "0x62e731218d0d47305aba2be3751e7ee9e5520790",
      "function": "registerAdminViaGetCCIPAdmin(address)",
      "arguments": [
        "0xAF8E5D63c45925a201bDd824c3452CF77D92bFF8"
      ],
      "transaction": {
        "from": "0xbf2a4454226e8296825d3ec06d08d6c0b41dcebd",
        "to": "0x62e731218d0d47305aba2be3751e7ee9e5520790",
        "gas": "0xe7bd",
        "value": "0x0",
        "input": "0xff12c354000000000000000000000000af8e5d63c45925a201bdd824c3452cf77d92bff8",
        "nonce": "0xc4",
        "chainId": "0xaa36a7"
      },
      "additionalContracts": [],
      "isFixedGasLimit": false
    }
  ],
  "receipts": [
    {
      "status": "0x1",
      "cumulativeGasUsed": "0x15c0cfa",
      "logs": [
        {
          "address": "0x95f29fee11c5c55d26cccf1db6772de953b37b82",
          "topics": [
            "0xc54c3051ff16e63bb9203214432372aca006c589e3653619b577a3265675b716",
            "0x000000000000000000000000af8e5d63c45925a201bdd824c3452cf77d92bff8",
            "0x0000000000000000000000000000000000000000000000000000000000000000",
            "0x000000000000000000000000bf2a4454226e8296825d3ec06d08d6c0b41dcebd"
          ],
          "data": "0x",
          "blockHash": "0x8f78f97edebdfc1227ea546ba0e2dcc12c794e60944bcb75361987fe96705f75",
          "blockNumber": "0x9a1352",
          "blockTimestamp": "0x6971dc18",
          "transactionHash": "0x99b24964743067c6f0e9ecb0b38cdb5405870b952fd37b90b031a3c3d8def167",
          "transactionIndex": "0x45",
          "logIndex": "0xda",
          "removed": false
        },
        {
          "address": "0x62e731218d0d47305aba2be3751e7ee9e5520790",
          "topics": [
            "0x09590fb70af4b833346363965e043a9339e8c7d378b8a2b903c75c277faec4f9",
            "0x000000000000000000000000af8e5d63c45925a201bdd824c3452cf77d92bff8",
            "0x000000000000000000000000bf2a4454226e8296825d3ec06d08d6c0b41dcebd"
          ],
          "data": "0x",
          "blockHash": "0x8f78f97edebdfc1227ea546ba0e2dcc12c794e60944bcb75361987fe96705f75",
          "blockNumber": "0x9a1352",
          "blockTimestamp": "0x6971dc18",
          "transactionHash": "0x99b24964743067c6f0e9ecb0b38cdb5405870b952fd37b90b031a3c3d8def167",
          "transactionIndex": "0x45",
          "logIndex": "0xdb",
          "removed": false
        }
      ],
      "logsBloom": "0x00000000000000000000000000000000002000000000000000000000000000000000000000000000008800000000000000000000000000000000000400000000000000000040000000000040000000000000000000000002000000000000000000000000020000000000000000000800000000000000000000000000000000000000000000000000000000000000000000000000000000000000000001000000000000000000000000000000000002000000000000000008000000000000000000000000400000000000000000000000000000400000000000000000000120000000001000000000400001000000000000000000000000000800020000000000",
      "type": "0x2",
      "transactionHash": "0x99b24964743067c6f0e9ecb0b38cdb5405870b952fd37b90b031a3c3d8def167",
      "transactionIndex": "0x45",
      "blockHash": "0x8f78f97edebdfc1227ea546ba0e2dcc12c794e60944bcb75361987fe96705f75",
      "blockNumber": "0x9a1352",
      "gasUsed": "0xa7c7",
      "effectiveGasPrice": "0x419ab5b5",
      "from": "0xbf2a4454226e8296825d3ec06d08d6c0b41dcebd",
      "to": "0x62e731218d0d47305aba2be3751e7ee9e5520790",
      "contractAddress": null
    }
  ],
  "libraries": [],
  "pending": [],
  "returns": {},
  "timestamp": 1769069594517,
  "chain": 11155111,
  "commit": "1262e70"
}