{
  "transactions": [
    {
      "hash": "0x31d473ab7c26c69d81ed8742e5c99d80dbbce0328fdeff725b123cfc728aa0ed",
      "transactionType": "CALL",
      "contractName": "RegistryModuleOwnerCustom",
      "contractAddress": "0x8a55c61227f26a3e2f217842ecf20b52007baabe",
      "function": "registerAdminViaGetCCIPAdmin(address)",
      "arguments": [
        "0x2be47261554ce80f6f2cC7490B072506eE20ca46"
      ],
      "transaction": {
        "from": "0xbf2a4454226e8296825d3ec06d08d6c0b41dcebd",
        "to": "0x8a55c61227f26a3e2f217842ecf20b52007baabe",
        "gas": "0x252b6",
        "value": "0x0",
        "input": "0xff12c3540000000000000000000000002be47261554ce80f6f2cc7490b072506ee20ca46",
        "nonce": "0x5",
        "chainId": "0x14a34"
      },
      "additionalContracts": [],
      "isFixedGasLimit": false
    }
  ],
  "receipts": [
    {
      "status": "0x1",
      "cumulativeGasUsed": "0xb5e9b7",
      "logs": [
        {
          "address": "0x736d0bbb318c1b27ff686cd19804094e66250e17",
          "topics": [
            "0xc54c3051ff16e63bb9203214432372aca006c589e3653619b577a3265675b716",
            "0x0000000000000000000000002be47261554ce80f6f2cc7490b072506ee20ca46",
            "0x0000000000000000000000000000000000000000000000000000000000000000",
            "0x000000000000000000000000bf2a4454226e8296825d3ec06d08d6c0b41dcebd"
          ],
          "data": "0x",
          "blockHash": "0x0db12b27969e01404c44b9464c8d05f7564a1224c434f3083cee72d50071f114",
          "blockNumber": "0x22f3ebe",
          "blockTimestamp": "0x6971dc5c",
          "transactionHash": "0x31d473ab7c26c69d81ed8742e5c99d80dbbce0328fdeff725b123cfc728aa0ed",
          "transactionIndex": "0x18",
          "logIndex": "0x8f",
          "removed": false
        },
        {
          "address": "0x8a55c61227f26a3e2f217842ecf20b52007baabe",
          "topics": [
            "0x09590fb70af4b833346363965e043a9339e8c7d378b8a2b903c75c277faec4f9",
            "0x0000000000000000000000002be47261554ce80f6f2cc7490b072506ee20ca46",
            "0x000000000000000000000000bf2a4454226e8296825d3ec06d08d6c0b41dcebd"
          ],
          "data": "0x",
          "blockHash": "0x0db12b27969e01404c44b9464c8d05f7564a1224c434f3083cee72d50071f114",
          "blockNumber": "0x22f3ebe",
          "blockTimestamp": "0x6971dc5c",
          "transactionHash": "0x31d473ab7c26c69d81ed8742e5c99d80dbbce0328fdeff725b123cfc728aa0ed",
          "transactionIndex": "0x18",
          "logIndex": "0x90",
          "removed": false
        }
      ],
      "logsBloom": "0x00000000000000000000000020000000000000000000000000000000000000000000000000000000000000000000000000000000000000000000000400000000000000000040000000000040000001000000000000000000000000000000000000000000020000000000800000000800000000000000000004000000000000000000000000000000000000000080000000000000000000000000000001000000000000000000000000000000000002000000020000000000000000000000000001000000400000000000000000000000000000000000020000000000000120000000001000000000000000000000000000000000000000000800000000000000",
      "type": "0x2",
      "transactionHash": "0x31d473ab7c26c69d81ed8742e5c99d80dbbce0328fdeff725b123cfc728aa0ed",
      "transactionIndex": "0x18",
      "blockHash": "0x0db12b27969e01404c44b9464c8d05f7564a1224c434f3083cee72d50071f114",
      "blockNumber": "0x22f3ebe",
      "gasUsed": "0x1ae90",
      "effectiveGasPrice": "0x124f80",
      "blobGasUsed": "0x79e0",
      "from": "0xbf2a4454226e8296825d3ec06d08d6c0b41dcebd",
      "to": "0x8a55c61227f26a3e2f217842ecf20b52007baabe",
      "contractAddress": null,
      "daFootprintGasScalar": "0x138",
      "l1BaseFeeScalar": "0x44d",
      "l1BlobBaseFee": "0x45b052e",
      "l1BlobBaseFeeScalar": "0xa118b",
      "l1Fee": "0x19111af32",
      "l1GasPrice": "0x40867c1a",
      "l1GasUsed": "0x640"
    }
  ],
  "libraries": [],
  "pending": [],
  "returns": {},
  "timestamp": 1769069664160,
  "chain": 84532,
  "commit": "1262e70"
}