{
  "transactions": [
    {
      "hash": "0xaa85f0ccfe41611ee64312d3b2d5e13748677aed5105534ce68bed57a3d230cf",
      "transactionType": "CALL",
      "contractName": "MyToken",
      "contractAddress": "0xd0d74d3f48c888759ed40139082a593c2e1f1af7",
      "function": "approve(address,uint256)",
      "arguments": [
        "0xfd0Bf71F60660E2f608ed56e1659C450eB113120",
        "100000000000000000000"
      ],
      "transaction": {
        "from": "0xbf2a4454226e8296825d3ec06d08d6c0b41dcebd",
        "to": "0xd0d74d3f48c888759ed40139082a593c2e1f1af7",
        "gas": "0xfd42",
        "value": "0x0",
        "input": "0x095ea7b3000000000000000000000000fd0bf71f60660e2f608ed56e1659c450eb1131200000000000000000000000000000000000000000000000056bc75e2d63100000",
        "nonce": "0xbd",
        "chainId": "0xaa36a7"
      },
      "additionalContracts": [],
      "isFixedGasLimit": false
    },
    {
      "hash": "0x4f5095fcfe511e4e2fa762dd8f7fb240161ba8748d6c6485e37fac44ca328791",
      "transactionType": "CALL",
      "contractName": null,
      "contractAddress": "0xfd0bf71f60660e2f608ed56e1659c450eb113120",
      "function": "bridgeERC20(address,address,uint256,uint32,bytes)",
      "arguments": [
        "0xd0D74D3F48C888759ed40139082a593c2E1f1Af7",
        "0x7716C9C084439824Da368E49A3b4DEFE73d59a89",
        "100000000000000000000",
        "200000",
        "0x"
      ],
      "transaction": {
        "from": "0xbf2a4454226e8296825d3ec06d08d6c0b41dcebd",
        "to": "0xfd0bf71f60660e2f608ed56e1659c450eb113120",
        "gas": "0xe2663",
        "value": "0x0",
        "input": "0x87087623000000000000000000000000d0d74d3f48c888759ed40139082a593c2e1f1af70000000000000000000000007716c9c084439824da368e49a3b4defe73d59a890000000000000000000000000000000000000000000000056bc75e2d631000000000000000000000000000000000000000000000000000000000000000030d4000000000000000000000000000000000000000000000000000000000000000a00000000000000000000000000000000000000000000000000000000000000000",
        "nonce": "0xbe",
        "chainId": "0xaa36a7"
      },
      "additionalContracts": [],
      "isFixedGasLimit": false
    }
  ],
  "receipts": [
    {
      "status": "0x1",
      "cumulativeGasUsed": "0xaf53bb",
      "logs": [
        {
          "address": "0xd0d74d3f48c888759ed40139082a593c2e1f1af7",
          "topics": [
            "0x8c5be1e5ebec7d5bd14f71427d1e84f3dd0314c0f7b2291e5b200ac8c7c3b925",
            "0x000000000000000000000000bf2a4454226e8296825d3ec06d08d6c0b41dcebd",
            "0x000000000000000000000000fd0bf71f60660e2f608ed56e1659c450eb113120"
          ],
          "data": "0x0000000000000000000000000000000000000000000000056bc75e2d63100000",
          "blockHash": "0x5136089b9ae0d10cd2753e9afdfc007b4bbc5af85c1a9390b1cd714e7a9e8658",
          "blockNumber": "0x99f913",
          "blockTimestamp": "0x69709818",
          "transactionHash": "0xaa85f0ccfe41611ee64312d3b2d5e13748677aed5105534ce68bed57a3d230cf",
          "transactionIndex": "0x31",
          "logIndex": "0x5b",
          "removed": false
        }
      ],
      "logsBloom": "0x00000000000000000000000000000000000000000000004000000000000000000000000000000000000000000000000001000000000000000000000000200000000000000000000000000000000000000000000000000000000000000000000000000000000000000000000000000000000000000000000000000000000000000000000000000000000008000000000000000000000000000000000001000000020000100000000000000000000002000000000000000000000000000000000000000000000000008000000000000000000000000000002000000000000000000010001000000000000000000000000000000000000000000000000000000000",
      "type": "0x2",
      "transactionHash": "0xaa85f0ccfe41611ee64312d3b2d5e13748677aed5105534ce68bed57a3d230cf",
      "transactionIndex": "0x31",
      "blockHash": "0x5136089b9ae0d10cd2753e9afdfc007b4bbc5af85c1a9390b1cd714e7a9e8658",
      "blockNumber": "0x99f913",
      "gasUsed": "0xb75c",
      "effectiveGasPrice": "0x3d763c6a",
      "from": "0xbf2a4454226e8296825d3ec06d08d6c0b41dcebd",
      "to": "0xd0d74d3f48c888759ed40139082a593c2e1f1af7",
      "contractAddress": null
    },
    {
      "status": "0x1",
      "cumulativeGasUsed": "0x522091",
      "logs": [
        {
          "address": "0xd0d74d3f48c888759ed40139082a593c2e1f1af7",
          "topics": [
            "0xddf252ad1be2c89b69c2b068fc378daa952ba7f163c4a11628f55a4df523b3ef",
            "0x000000000000000000000000bf2a4454226e8296825d3ec06d08d6c0b41dcebd",
            "0x000000000000000000000000fd0bf71f60660e2f608ed56e1659c450eb113120"
          ],
          "data": "0x0000000000000000000000000000000000000000000000056bc75e2d63100000",
          "blockHash": "0x4ee34493569dd766f31cd3f49f65715c99c98270ef52e73543ac8d7353303656",
          "blockNumber": "0x99f915",
          "blockTimestamp": "0x69709830",
          "transactionHash": "0x4f5095fcfe511e4e2fa762dd8f7fb240161ba8748d6c6485e37fac44ca328791",
          "transactionIndex": "0x22",
          "logIndex": "0x43",
          "removed": false
        },
        {
          "address": "0xfd0bf71f60660e2f608ed56e1659c450eb113120",
          "topics": [
            "0x718594027abd4eaed59f95162563e0cc6d0e8d5b86b1c7be8b1b0ac3343d0396",
            "0x000000000000000000000000d0d74d3f48c888759ed40139082a593c2e1f1af7",
            "0x0000000000000000000000007716c9c084439824da368e49a3b4defe73d59a89",
            "0x000000000000000000000000bf2a4454226e8296825d3ec06d08d6c0b41dcebd"
          ],
          "data": "0x000000000000000000000000bf2a4454226e8296825d3ec06d08d6c0b41dcebd0000000000000000000000000000000000000000000000056bc75e2d6310000000000000000000000000000000000000000000000000000000000000000000600000000000000000000000000000000000000000000000000000000000000000",
          "blockHash": "0x4ee34493569dd766f31cd3f49f65715c99c98270ef52e73543ac8d7353303656",
          "blockNumber": "0x99f915",
          "blockTimestamp": "0x69709830",
          "transactionHash": "0x4f5095fcfe511e4e2fa762dd8f7fb240161ba8748d6c6485e37fac44ca328791",
          "transactionIndex": "0x22",
          "logIndex": "0x44",
          "removed": false
        },
        {
          "address": "0xfd0bf71f60660e2f608ed56e1659c450eb113120",
          "topics": [
            "0x7ff126db8024424bbfd9826e8ab82ff59136289ea440b04b39a0df1b03b9cabf",
            "0x000000000000000000000000d0d74d3f48c888759ed40139082a593c2e1f1af7",
            "0x0000000000000000000000007716c9c084439824da368e49a3b4defe73d59a89",
            "0x000000000000000000000000bf2a4454226e8296825d3ec06d08d6c0b41dcebd"
          ],
          "data": "0x000000000000000000000000bf2a4454226e8296825d3ec06d08d6c0b41dcebd0000000000000000000000000000000000000000000000056bc75e2d6310000000000000000000000000000000000000000000000000000000000000000000600000000000000000000000000000000000000000000000000000000000000000",
          "blockHash": "0x4ee34493569dd766f31cd3f49f65715c99c98270ef52e73543ac8d7353303656",
          "blockNumber": "0x99f915",
          "blockTimestamp": "0x69709830",
          "transactionHash": "0x4f5095fcfe511e4e2fa762dd8f7fb240161ba8748d6c6485e37fac44ca328791",
          "transactionIndex": "0x22",
          "logIndex": "0x45",
          "removed": false
        },
        {
          "address": "0x49f53e41452c74589e85ca1677426ba426459e85",
          "topics": [
            "0xb3813568d9991fc951961fcb4c784893574240a28925604d09fc577c55bb7c32",
            "0x000000000000000000000000d45955f4de64f1840e5686e64278da901e263031",
            "0x0000000000000000000000004200000000000000000000000000000000000007",
            "0x0000000000000000000000000000000000000000000000000000000000000000"
          ],
          "data": "0x0000000000000000000000000000000000000000000000000000000000000020000000000000000000000000000000000000000000000000000000000000022d00000000000000000000000000000000000000000000000000000000000000000000000000000000000000000000000000000000000000000000000000000000000000000007e37600d764ad0b000100000000000000000000000000000000000000000000000000000009ed53000000000000000000000000fd0bf71f60660e2f608ed56e1659c450eb113120000000000000000000000000420000000000000000000000000000000000001000000000000000000000000000000000000000000000000000000000000000000000000000000000000000000000000000000000000000000000000000030d4000000000000000000000000000000000000000000000000000000000000000c000000000000000000000000000000000000000000000000000000000000000e40166a07a0000000000000000000000007716c9c084439824da368e49a3b4defe73d59a89000000000000000000000000d0d74d3f48c888759ed40139082a593c2e1f1af7000000000000000000000000bf2a4454226e8296825d3ec06d08d6c0b41dcebd000000000000000000000000bf2a4454226e8296825d3ec06d08d6c0b41dcebd0000000000000000000000000000000000000000000000056bc75e2d6310000000000000000000000000000000000000000000000000000000000000000000c000000000000000000000000000000000000000000000000000000000000000000000000000000000000000000000000000000000000000000000000000000000000000000000000000000000000000",
          "blockHash": "0x4ee34493569dd766f31cd3f49f65715c99c98270ef52e73543ac8d7353303656",
          "blockNumber": "0x99f915",
          "blockTimestamp": "0x69709830",
          "transactionHash": "0x4f5095fcfe511e4e2fa762dd8f7fb240161ba8748d6c6485e37fac44ca328791",
          "transactionIndex": "0x22",
          "logIndex": "0x46",
          "removed": false
        },
        {
          "address": "0xc34855f4de64f1840e5686e64278da901e261f20",
          "topics": [
            "0xcb0f7ffd78f9aee47a248fae8db181db6eee833039123e026dcbff529522e52a",
            "0x0000000000000000000000004200000000000000000000000000000000000010"
          ],
          "data": "0x000000000000000000000000fd0bf71f60660e2f608ed56e1659c450eb1131200000000000000000000000000000000000000000000000000000000000000080000100000000000000000000000000000000000000000000000000000009ed530000000000000000000000000000000000000000000000000000000000030d4000000000000000000000000000000000000000000000000000000000000000e40166a07a0000000000000000000000007716c9c084439824da368e49a3b4defe73d59a89000000000000000000000000d0d74d3f48c888759ed40139082a593c2e1f1af7000000000000000000000000bf2a4454226e8296825d3ec06d08d6c0b41dcebd000000000000000000000000bf2a4454226e8296825d3ec06d08d6c0b41dcebd0000000000000000000000000000000000000000000000056bc75e2d6310000000000000000000000000000000000000000000000000000000000000000000c0000000000000000000000000000000000000000000000000000000000000000000000000000000000000000000000000000000000000000000000000",
          "blockHash": "0x4ee34493569dd766f31cd3f49f65715c99c98270ef52e73543ac8d7353303656",
          "blockNumber": "0x99f915",
          "blockTimestamp": "0x69709830",
          "transactionHash": "0x4f5095fcfe511e4e2fa762dd8f7fb240161ba8748d6c6485e37fac44ca328791",
          "transactionIndex": "0x22",
          "logIndex": "0x47",
          "removed": false
        },
        {
          "address": "0xc34855f4de64f1840e5686e64278da901e261f20",
          "topics": [
            "0x8ebb2ec2465bdb2a06a66fc37a0963af8a2a6a1479d81d56fdb8cbb98096d546",
            "0x000000000000000000000000fd0bf71f60660e2f608ed56e1659c450eb113120"
          ],
          "data": "0x0000000000000000000000000000000000000000000000000000000000000000",
          "blockHash": "0x4ee34493569dd766f31cd3f49f65715c99c98270ef52e73543ac8d7353303656",
          "blockNumber": "0x99f915",
          "blockTimestamp": "0x69709830",
          "transactionHash": "0x4f5095fcfe511e4e2fa762dd8f7fb240161ba8748d6c6485e37fac44ca328791",
          "transactionIndex": "0x22",
          "logIndex": "0x48",
          "removed": false
        }
      ],
      "logsBloom": "0x0000000000014000009000000400000000000000000000400000000000000000000000000000000000000000000400804100000000000000000010000000000020000100000000004000000a000800000400002000000000000000000000000040000000020000000010000000000800000800000020000004000010000008000200000000000000000008000000000000000000000000000001080001400000000000100000000000008100080002000000000000000000000000000000000000000002000000008000000008020000000000000000202000040000000021000000001000040000000000402000000000000000080000000000000000000000",
      "type": "0x2",
      "transactionHash": "0x4f5095fcfe511e4e2fa762dd8f7fb240161ba8748d6c6485e37fac44ca328791",
      "transactionIndex": "0x22",
      "blockHash": "0x4ee34493569dd766f31cd3f49f65715c99c98270ef52e73543ac8d7353303656",
      "blockNumber": "0x99f915",
      "gasUsed": "0x9ae42",
      "effectiveGasPrice": "0x40d3a4b0",
      "from": "0xbf2a4454226e8296825d3ec06d08d6c0b41dcebd",
      "to": "0xfd0bf71f60660e2f608ed56e1659c450eb113120",
      "contractAddress": null
    }
  ],
  "libraries": [],
  "pending": [],
  "returns": {},
  "timestamp": 1768986673767,
  "chain": 11155111,
  "commit": "cae27ff"
}