{
  "transactions": [
    {
      "hash": "0xe7ce15f86c75e96a969ae070c287c61e719cb39a8e6df3045d472c40c00a029d",
      "transactionType": "CALL",
      "contractName": null,
      "contractAddress": "0xc33f9b759f4f3b410dc4f1d4d6493619c1d1f1bf",
      "function": "applyChainUpdates(uint64[],(uint64,bytes[],bytes,(bool,uint128,uint128),(bool,uint128,uint128))[])",
      "arguments": [
        "[]",
        "[(10344971235874465080, [0x000000000000000000000000f499e1fc5978fa1bc848c49c158ef2db4b941fba], 0x0000000000000000000000002be47261554ce80f6f2cc7490b072506ee20ca46, (false, 0, 0), (false, 0, 0))]"
      ],
      "transaction": {
        "from": "0xbf2a4454226e8296825d3ec06d08d6c0b41dcebd",
        "to": "0xc33f9b759f4f3b410dc4f1d4d6493619c1d1f1bf",
        "gas": "0x686c4",
        "value": "0x0",
        "input": "0xe8a1da17000000000000000000000000000000000000000000000000000000000000004000000000000000000000000000000000000000000000000000000000000000600000000000000000000000000000000000000000000000000000000000000000000000000000000000000000000000000000000000000000000000000000000100000000000000000000000000000000000000000000000000000000000000200000000000000000000000000000000000000000000000008f90b8876dee6538000000000000000000000000000000000000000000000000000000000000012000000000000000000000000000000000000000000000000000000000000001a0000000000000000000000000000000000000000000000000000000000000000000000000000000000000000000000000000000000000000000000000000000000000000000000000000000000000000000000000000000000000000000000000000000000000000000000000000000000000000000000000000000000000000000000000000000000000000000000000000000000000000000000000000000000000000000000000000000000000000000000000000000000000000000000000000000000000000000000000000000000000000000000000000000000000000100000000000000000000000000000000000000000000000000000000000000200000000000000000000000000000000000000000000000000000000000000020000000000000000000000000f499e1fc5978fa1bc848c49c158ef2db4b941fba00000000000000000000000000000000000000000000000000000000000000200000000000000000000000002be47261554ce80f6f2cc7490b072506ee20ca46",
        "nonce": "0xc7",
        "chainId": "0xaa36a7"
      },
      "additionalContracts": [],
      "isFixedGasLimit": false
    }
  ],
  "receipts": [
    {
      "status": "0x1",
      "cumulativeGasUsed": "0x5154c6",
      "logs": [
        {
          "address": "0xc33f9b759f4f3b410dc4f1d4d6493619c1d1f1bf",
          "topics": [
            "0x7d628c9a1796743d365ab521a8b2a4686e419b3269919dc9145ea2ce853b54ea",
            "0x0000000000000000000000000000000000000000000000008f90b8876dee6538"
          ],
          "data": "0x00000000000000000000000000000000000000000000000000000000000000200000000000000000000000000000000000000000000000000000000000000020000000000000000000000000f499e1fc5978fa1bc848c49c158ef2db4b941fba",
          "blockHash": "0x5a7539f46253037e6f2f2a6b64a7f5f66282031393af1210af35a1f15f82c5e6",
          "blockNumber": "0x9a136c",
          "blockTimestamp": "0x6971dd50",
          "transactionHash": "0xe7ce15f86c75e96a969ae070c287c61e719cb39a8e6df3045d472c40c00a029d",
          "transactionIndex": "0x20",
          "logIndex": "0x41",
          "removed": false
        },
        {
          "address": "0xc33f9b759f4f3b410dc4f1d4d6493619c1d1f1bf",
          "topics": [
            "0x8d340f17e19058004c20453540862a9c62778504476f6756755cb33bcd6c38c2"
          ],
          "data": "0x0000000000000000000000000000000000000000000000008f90b8876dee6538000000000000000000000000000000000000000000000000000000000000010000000000000000000000000000000000000000000000000000000000000000000000000000000000000000000000000000000000000000000000000000000000000000000000000000000000000000000000000000000000000000000000000000000000000000000000000000000000000000000000000000000000000000000000000000000000000000000000000000000000000000000000000000000000000000000000000000000000000000000000000000000000000000000000000000000000000000000000000000000000000000000000000000000000000000200000000000000000000000002be47261554ce80f6f2cc7490b072506ee20ca46",
          "blockHash": "0x5a7539f46253037e6f2f2a6b64a7f5f66282031393af1210af35a1f15f82c5e6",
          "blockNumber": "0x9a136c",
          "blockTimestamp": "0x6971dd50",
          "transactionHash": "0xe7ce15f86c75e96a969ae070c287c61e719cb39a8e6df3045d472c40c00a029d",
          "transactionIndex": "0x20",
          "logIndex": "0x42",
          "removed": false
        }
      ],
      "logsBloom": "0x00000080000000400000000000000000000000000000000000000000000000000000000000000000000000000000000000000000000000000004000000000004000000000000000000000000000000000000000400000000000000000000200000000000000000000000000000000000000000000000000000000000000000404100000000000000000000000000000000000000000000000000000000000000000000000000000000000000000000000000000000000000000000000000000000000000000000000000000000000000000000000000000000000000000000000000000000000000000000000000000000000008008000000100000000000000",
      "type": "0x2",
      "transactionHash": "0xe7ce15f86c75e96a969ae070c287c61e719cb39a8e6df3045d472c40c00a029d",
      "transactionIndex": "0x20",
      "blockHash": "0x5a7539f46253037e6f2f2a6b64a7f5f66282031393af1210af35a1f15f82c5e6",
      "blockNumber": "0x9a136c",
      "gasUsed": "0x4b99c",
      "effectiveGasPrice": "0x3ecb1743",
      "from": "0xbf2a4454226e8296825d3ec06d08d6c0b41dcebd",
      "to": "0xc33f9b759f4f3b410dc4f1d4d6493619c1d1f1bf",
      "contractAddress": null
    }
  ],
  "libraries": [],
  "pending": [],
  "returns": {},
  "timestamp": 1769069905368,
  "chain": 11155111,
  "commit": "1262e70"
}