{
  "transactions": [
    {
      "hash": "0xde2ca1eabb4a555303f5494ebd954566333928f78149b03663f76bc2a61325d1",
      "transactionType": "CALL",
      "contractName": "TokenAdminRegistry",
      "contractAddress": "0x95f29fee11c5c55d26cccf1db6772de953b37b82",
      "function": "setPool(address,address)",
      "arguments": [
        "0xAF8E5D63c45925a201bDd824c3452CF77D92bFF8",
        "0xc33F9B759f4f3b410DC4F1D4d6493619C1d1f1bF"
      ],
      "transaction": {
        "from": "0xbf2a4454226e8296825d3ec06d08d6c0b41dcebd",
        "to": "0x95f29fee11c5c55d26cccf1db6772de953b37b82",
        "gas": "0x11882",
        "value": "0x0",
        "input": "0x4e847fc7000000000000000000000000af8e5d63c45925a201bdd824c3452cf77d92bff8000000000000000000000000c33f9b759f4f3b410dc4f1d4d6493619c1d1f1bf",
        "nonce": "0xc6",
        "chainId": "0xaa36a7"
      },
      "additionalContracts": [],
      "isFixedGasLimit": false
    }
  ],
  "receipts": [
    {
      "status": "0x1",
      "cumulativeGasUsed": "0x9046a8",
      "logs": [
        {
          "address": "0x95f29fee11c5c55d26cccf1db6772de953b37b82",
          "topics": [
            "0x754449ec3aff3bd528bfce43ae9319c4a381b67fcd1d20097b3b24dacaecc35d",
            "0x000000000000000000000000af8e5d63c45925a201bdd824c3452cf77d92bff8",
            "0x0000000000000000000000000000000000000000000000000000000000000000",
            "0x000000000000000000000000c33f9b759f4f3b410dc4f1d4d6493619c1d1f1bf"
          ],
          "data": "0x",
          "blockHash": "0xcf290e2795c376aef28300490e940f19b38cfadf626a9a2c5b25bacd875b2b94",
          "blockNumber": "0x9a1364",
          "blockTimestamp": "0x6971dcf0",
          "transactionHash": "0xde2ca1eabb4a555303f5494ebd954566333928f78149b03663f76bc2a61325d1",
          "transactionIndex": "0x33",
          "logIndex": "0xc6",
          "removed": false
        }
      ],
      "logsBloom": "0x00000000000400000000000000000000000000000000000000000000000000000000000000000000000800000000000000000000000000000000000000000000000000000000000000000000000000000000000001000000000000000000000000000000020000000000000000000800000000000000000000000000000000000000000000000000000000000000000000000000000000000000000000000000000000000000000001000000000000000000000000000008000000000000000000000000000000000000000000000000000000400000000000000000000020000000400000000000400001000000000000000000000000000000020001001000",
      "type": "0x2",
      "transactionHash": "0xde2ca1eabb4a555303f5494ebd954566333928f78149b03663f76bc2a61325d1",
      "transactionIndex": "0x33",
      "blockHash": "0xcf290e2795c376aef28300490e940f19b38cfadf626a9a2c5b25bacd875b2b94",
      "blockNumber": "0x9a1364",
      "gasUsed": "0xcb16",
      "effectiveGasPrice": "0x3e7b2aa2",
      "from": "0xbf2a4454226e8296825d3ec06d08d6c0b41dcebd",
      "to": "0x95f29fee11c5c55d26cccf1db6772de953b37b82",
      "contractAddress": null
    }
  ],
  "libraries": [],
  "pending": [],
  "returns": {},
  "timestamp": 1769069810429,
  "chain": 11155111,
  "commit": "1262e70"
}