{
  "transactions": [
    {
      "hash": "0x99f0a2f549aa5221d71e0b37e7a17dd3066bca4144e8b2d1266e4d270cd427f0",
      "transactionType": "CALL",
      "contractName": "TokenAdminRegistry",
      "contractAddress": "0x95f29fee11c5c55d26cccf1db6772de953b37b82",
      "function": "acceptAdminRole(address)",
      "arguments": [
        "0xAF8E5D63c45925a201bDd824c3452CF77D92bFF8"
      ],
      "transaction": {
        "from": "0xbf2a4454226e8296825d3ec06d08d6c0b41dcebd",
        "to": "0x95f29fee11c5c55d26cccf1db6772de953b37b82",
        "gas": "0x10611",
        "value": "0x0",
        "input": "0x156194da000000000000000000000000af8e5d63c45925a201bdd824c3452cf77d92bff8",
        "nonce": "0xc5",
        "chainId": "0xaa36a7"
      },
      "additionalContracts": [],
      "isFixedGasLimit": false
    }
  ],
  "receipts": [
    {
      "status": "0x1",
      "cumulativeGasUsed": "0x52df2c",
      "logs": [
        {
          "address": "0x95f29fee11c5c55d26cccf1db6772de953b37b82",
          "topics": [
            "0x399b55200f7f639a63d76efe3dcfa9156ce367058d6b673041b84a628885f5a7",
            "0x000000000000000000000000af8e5d63c45925a201bdd824c3452cf77d92bff8",
            "0x000000000000000000000000bf2a4454226e8296825d3ec06d08d6c0b41dcebd"
          ],
          "data": "0x",
          "blockHash": "0x71be458c0446b12049533944802ae8c0963afdd93084329cd01bab16989573d0",
          "blockNumber": "0x9a135b",
          "blockTimestamp": "0x6971dc84",
          "transactionHash": "0x99f0a2f549aa5221d71e0b37e7a17dd3066bca4144e8b2d1266e4d270cd427f0",
          "transactionIndex": "0x2b",
          "logIndex": "0x55",
          "removed": false
        }
      ],
      "logsBloom": "0x00000000000000000000000000000000000000000000001000000000000000000000000000000000000800000000000000000000000000000000000000000000000000000000000000000000000000000000000000000000000000000000000000000000000000000000000000000000000000000000000000000000000000000000000000000000000000000000000000000000000000000000000001000000000000000000000000000000000002000000000000000008000000000000000000000000000004000000000000000000000000400000000000000000000000000000001000000000400001000000000000000000000400000000020000000000",
      "type": "0x2",
      "transactionHash": "0x99f0a2f549aa5221d71e0b37e7a17dd3066bca4144e8b2d1266e4d270cd427f0",
      "transactionIndex": "0x2b",
      "blockHash": "0x71be458c0446b12049533944802ae8c0963afdd93084329cd01bab16989573d0",
      "blockNumber": "0x9a135b",
      "gasUsed": "0xb331",
      "effectiveGasPrice": "0x3c76697a",
      "from": "0xbf2a4454226e8296825d3ec06d08d6c0b41dcebd",
      "to": "0x95f29fee11c5c55d26cccf1db6772de953b37b82",
      "contractAddress": null
    }
  ],
  "libraries": [],
  "pending": [],
  "returns": {},
  "timestamp": 1769069702384,
  "chain": 11155111,
  "commit": "1262e70"
}