{
  "transactions": [
    {
      "hash": "0x92659a9f53f071eda16096b3daf0ad3bd6990860e4a726dbeaff33e7cabe0740",
      "transactionType": "CALL",
      "contractName": null,
      "contractAddress": "0xf499e1fc5978fa1bc848c49c158ef2db4b941fba",
      "function": "applyChainUpdates(uint64[],(uint64,bytes[],bytes,(bool,uint128,uint128),(bool,uint128,uint128))[])",
      "arguments": [
        "[]",
        "[(16015286601757825753, [0x000000000000000000000000c33f9b759f4f3b410dc4f1d4d6493619c1d1f1bf], 0x000000000000000000000000af8e5d63c45925a201bdd824c3452cf77d92bff8, (false, 0, 0), (false, 0, 0))]"
      ],
      "transaction": {
        "from": "0xbf2a4454226e8296825d3ec06d08d6c0b41dcebd",
        "to": "0xf499e1fc5978fa1bc848c49c158ef2db4b941fba",
        "gas": "0x686c4",
        "value": "0x0",
        "input": "0xe8a1da1700000000000000000000000000000000000000000000000000000000000000400000000000000000000000000000000000000000000000000000000000000060000000000000000000000000000000000000000000000000000000000000000000000000000000000000000000000000000000000000000000000000000000010000000000000000000000000000000000000000000000000000000000000020000000000000000000000000000000000000000000000000de41ba4fc9d91ad9000000000000000000000000000000000000000000000000000000000000012000000000000000000000000000000000000000000000000000000000000001a0000000000000000000000000000000000000000000000000000000000000000000000000000000000000000000000000000000000000000000000000000000000000000000000000000000000000000000000000000000000000000000000000000000000000000000000000000000000000000000000000000000000000000000000000000000000000000000000000000000000000000000000000000000000000000000000000000000000000000000000000000000000000000000000000000000000000000000000000000000000000000000000000000000000000000100000000000000000000000000000000000000000000000000000000000000200000000000000000000000000000000000000000000000000000000000000020000000000000000000000000c33f9b759f4f3b410dc4f1d4d6493619c1d1f1bf0000000000000000000000000000000000000000000000000000000000000020000000000000000000000000af8e5d63c45925a201bdd824c3452cf77d92bff8",
        "nonce": "0x8",
        "chainId": "0x14a34"
      },
      "additionalContracts": [],
      "isFixedGasLimit": false
    }
  ],
  "receipts": [
    {
      "status": "0x1",
      "cumulativeGasUsed": "0x163af6",
      "logs": [
        {
          "address": "0xf499e1fc5978fa1bc848c49c158ef2db4b941fba",
          "topics": [
            "0x7d628c9a1796743d365ab521a8b2a4686e419b3269919dc9145ea2ce853b54ea",
            "0x000000000000000000000000000000000000000000000000de41ba4fc9d91ad9"
          ],
          "data": "0x00000000000000000000000000000000000000000000000000000000000000200000000000000000000000000000000000000000000000000000000000000020000000000000000000000000c33f9b759f4f3b410dc4f1d4d6493619c1d1f1bf",
          "blockHash": "0xde1241faca6a4c6438afed6fadbd425050ca737c4b02dc65126f94d9198408ad",
          "blockNumber": "0x22f3f53",
          "blockTimestamp": "0x6971dd86",
          "transactionHash": "0x92659a9f53f071eda16096b3daf0ad3bd6990860e4a726dbeaff33e7cabe0740",
          "transactionIndex": "0x6",
          "logIndex": "0x9",
          "removed": false
        },
        {
          "address": "0xf499e1fc5978fa1bc848c49c158ef2db4b941fba",
          "topics": [
            "0x8d340f17e19058004c20453540862a9c62778504476f6756755cb33bcd6c38c2"
          ],
          "data": "0x000000000000000000000000000000000000000000000000de41ba4fc9d91ad900000000000000000000000000000000000000000000000000000000000001000000000000000000000000000000000000000000000000000000000000000000000000000000000000000000000000000000000000000000000000000000000000000000000000000000000000000000000000000000000000000000000000000000000000000000000000000000000000000000000000000000000000000000000000000000000000000000000000000000000000000000000000000000000000000000000000000000000000000000000000000000000000000000000000000000000000000000000000000000000000000000000000000000000000000020000000000000000000000000af8e5d63c45925a201bdd824c3452cf77d92bff8",
          "blockHash": "0xde1241faca6a4c6438afed6fadbd425050ca737c4b02dc65126f94d9198408ad",
          "blockNumber": "0x22f3f53",
          "blockTimestamp": "0x6971dd86",
          "transactionHash": "0x92659a9f53f071eda16096b3daf0ad3bd6990860e4a726dbeaff33e7cabe0740",
          "transactionIndex": "0x6",
          "logIndex": "0xa",
          "removed": false
        }
      ],
      "logsBloom": "0x00000000000000400000000000000000000000000000000080000000000000000000000000004000000000000000000000000000000000000004000000000004000000000000000000000000000000000000000000000000000000000000000000000000000000000000000000010000000000000000000000000000000000400000000000000000000000000000000000000020000000000000000000000000000000000000000000000000000000000000000000000000000000000000000000000000000000000000000000000000000000000000000000000000000000000000004000000000000000000000000000000000008000200100000000000000",
      "type": "0x2",
      "transactionHash": "0x92659a9f53f071eda16096b3daf0ad3bd6990860e4a726dbeaff33e7cabe0740",
      "transactionIndex": "0x6",
      "blockHash": "0xde1241faca6a4c6438afed6fadbd425050ca737c4b02dc65126f94d9198408ad",
      "blockNumber": "0x22f3f53",
      "gasUsed": "0x4b99c",
      "effectiveGasPrice": "0x124f80",
      "blobGasUsed": "0xbbb0",
      "from": "0xbf2a4454226e8296825d3ec06d08d6c0b41dcebd",
      "to": "0xf499e1fc5978fa1bc848c49c158ef2db4b941fba",
      "contractAddress": null,
      "daFootprintGasScalar": "0x138",
      "l1BaseFeeScalar": "0x44d",
      "l1BlobBaseFee": "0x485806c",
      "l1BlobBaseFeeScalar": "0xa118b",
      "l1Fee": "0x27fadd196",
      "l1GasPrice": "0x412b60b5",
      "l1GasUsed": "0x9ad"
    }
  ],
  "libraries": [],
  "pending": [],
  "returns": {},
  "timestamp": 1769069959268,
  "chain": 84532,
  "commit": "1262e70"
}